:1000000051C040C5D0C869C068C067C012C865C0CB
:1000100064C095C362C061C060C05FC05EC05DC0A7
:100020005CC05BC05AC03C003C0A003A003A0A007F
:100030003A20002500250A007300730A007E002D77
:10004000005200540049004B004F4E2F4F464600CF
:100050005049522F4C445200504952004C445200D7
:10006000434F4E4649470045584954004F4E004FB4
:100070004646004D696E50574D004D617850574DC2
:100080000054696D654F7574004C44527468004C9F
:100090004452696E76004144436761696E00455879
:1000A0004954000011241FBECFE5D4E0DEBFCDBF10
:1000B00011E0A0E6B0E0ECEBF9E102C005900D9292
:1000C000A034B107D9F711E0A0E4B1E001C01D925E
:1000D000A636B107E1F76DD96FCC92CF90BD89B943
:1000E000539A86E880BD08955D9BFECF8CB9089534
:1000F000FC0104C05D9BFECF8CB9319680818823C2
:10010000C9F708955F9BFECF8BB18CB1089585B779
:10011000836085BF85B78B7F85BF85B7886085BFC6
:100120008BB780688BBF0895379A86B1876086B990
:1001300087B1856087B93F983E9A369A08958BE0DB
:100140008EBD8CE790E09BBD8ABD089588B7816025
:1001500088BF89B7816089BF8FED82BF089583B75B
:10016000856083BF089513BE089589B7806189BFF4
:10017000089589B78F7E89BF089583BD882319F4B8
:1001800085B58C7D07C085B58B3619F085B5836242
:1001900001C085B585BD0895E199FECF9FBB8EBB9B
:1001A0004DBBE29AE19A0895E199FECF9FBB8EBBC9
:1001B000E09A8DB30895E199FECF8CE090E09FBB6B
:1001C0008EBBE09A8DB3853509F453C088E190E089
:1001D0004FEF50E060E070E0DFDF8EE190E048E05C
:1001E00050E060E070E0D8DF8FE190E04FEF50E04A
:1001F00060E070E0D1DF80E290E049E150E060E053
:1002000070E0CADF81E290E044E150E060E070E03D
:10021000C3DF82E290E040E050E060E070E0BCDFED
:1002200083E290E040E050E060E070E0B5DF84E21F
:1002300090E04AE050E060E070E0AEDF8CE090E0FB
:1002400045E550E060E070E0A7DF20E048EC50E0DA
:1002500081B3805881BB84EC99E0FA013197F1F7C2
:100260000197D9F72F5F263099F780E690E040DFBD
:10027000089520E048EC50E081B3805881BB84EFC2
:1002800091E0FA013197F1F70197D9F72F5F263006
:1002900099F70895E199FECF8EE190E09FBB8EBB68
:1002A000E09A8DB380934001E199FECF8FE190E019
:1002B0009FBB8EBBE09A8DB380934101E199FECF45
:1002C00080E290E09FBB8EBBE09A8DB380934201A9
:1002D000E199FECF81E290E09FBB8EBBE09A8DB3A7
:1002E00080934301E199FECF82E290E09FBB8EBBF9
:1002F000E09A8DB380934401E199FECF83E290E0D0
:100300009FBB8EBBE09A8DB380934501E199FECFF0
:1003100084E290E09FBB8EBBE09A8DB38093F700A0
:1003200008954091400150E060E070E08EE190E07F
:1003300033DF4091410150E060E070E08FE190E0F8
:100340002BDF4091420150E060E070E080E290E0FD
:1003500023DF4091430150E060E070E081E290E0F3
:100360001BDF4091440150E060E070E082E290E0E9
:1003700013DF4091450150E060E070E083E290E0DF
:100380000BDF4091F70050E060E070E084E290E025
:1003900003DF089590915B0180E0B69B02C090E07E
:1003A000FCCF992319F481E091E002C09130A9F7C4
:1003B00090935B010895282FE2E1F1E090E08081C5
:1003C000821710F0892F08959F5F31969F32B9F7F9
:1003D00008950F931F93CF93DF9393B5C2E1D1E0BC
:1003E000DE01E0E08C91891710F00E2F04C0EF5F62
:1003F0001196EF32B9F7E199FECF8FE190E09FBB04
:100400008EBBE09A9DB310E088818917A8F41F5F26
:1004100021961F32C9F710E00FC0E02FF0E0EE5E2A
:10042000FE4F8081AADE84EF91E0FE013197F1F763
:100430000197D9F70F5F02C0C8ECD0E0101768F73A
:10044000DF91CF911F910F9108950F931F93CF9339
:10045000DF9393B5C2E1D1E0DE01E0E08C91891732
:1004600010F00E2F04C0EF5F1196EF32B9F7E1994B
:10047000FECF8EE190E09FBB8EBBE09A9DB310E073
:1004800088818917D0F41F5F21961F32C9F710E0C9
:1004900014C0002319F480E070DE13C0E02FF0E0F8
:1004A000EE5EFE4F808169DE84EF91E0FE013197C0
:1004B000F1F70197D9F7015002C0C8ECD0E001175D
:1004C00040F7DF91CF911F910F91089580915501D1
:1004D0009091560123E0969587952A95E1F729E1B9
:1004E00030E0AC01429FC001439F900D529F900DA0
:1004F0001124892F90E008952091550130915601E3
:1005000049E150E0481B590B63E0369527956A9501
:10051000E1F7429FC001439F900D529F900D11241F
:10052000892F90E00895809155019091560173E0D4
:10053000969587957A95E1F729E130E0AC01429FE5
:10054000C001439F900D529F900D112464E670E00E
:10055000DDD9CB010895409155015091560129E113
:1005600030E0281B390BE3E056954795EA95E1F713
:10057000249FC001259F900D349F900D112464E6A7
:1005800070E0C4D9CB01089524B135B1482F50E0B3
:10059000429FC001439F900D529F900D11248050A7
:1005A000984218F02FEF33E00EC084B195B19C0152
:1005B000429FC001439F900D529F900D11246AE00D
:1005C00070E0A4D99B01C90108951F93CF93DF93D5
:1005D00080914401882381F48091450190E0BBDF44
:1005E000282FE2E1F1E090E080818217B0F49F5F74
:1005F00031969F32C9F710C08091450190E0ABDF82
:10060000282F2095E2E1F1E090E08081821728F424
:100610009F5F31969F32C9F790E090935701909178
:100620005701809158018917C0F410915801C8EC06
:10063000D0E00EC0E12FF0E0EE5EFE4F80819DDD48
:1006400084EF91E0FE013197F1F70197D9F71F5F31
:1006500080915701811770F71DC0909157018091CB
:1006600058019817D0F410915801C8ECD0E00EC092
:10067000E12FF0E0EE5EFE4F80817FDD84EF91E0C0
:10068000FE013197F1F70197D9F711508091570189
:10069000811770F38091570102C0809158018093B7
:1006A0005801DF91CF911F9108958230E1F083309E
:1006B00030F4882349F0813009F040C007C083300E
:1006C00029F18430D9F532C015BC0BC08BE685BD4D
:1006D000E199FECF88E190E09FBB8EBBE09A8DB39D
:1006E0004CDD13BE10C08BE685BDE199FECF8EE1D7
:1006F00090E09FBB8EBBE09A8DB33FDD83B78560F2
:1007000083BF109259018BB78F7B0EC08BE685BDDE
:10071000E199FECF8EE190E09FBB8EBBE09A8DB356
:100720002CDD13BE8BB780648BBF08958BE685BD2F
:1007300083B7856083BF8BB78F7B8BBF08951F9274
:100740000F920FB60F9211240F931F932F933F9385
:100750004F935F936F937F938F939F93AF93BF93C9
:10076000EF93FF9313BE809154018F5F80935401E8
:10077000369A349BFECF009155011091560180911D
:10078000F70002DF080F191F10935601009355015F
:1007900080914E01833049F080914E01843029F0E0
:1007A00080914E01853009F056C080914801833018
:1007B00009F051C080914901823009F04CC080910C
:1007C0005401883009F047C080914E01853009F00E
:1007D00081E061E021D87ADE6CE571E04AE050E02A
:1007E000BCD83CD880914E01853019F483E390E069
:1007F00040D86CDE0A9718F483E790E02FD866DEC5
:100800008436910518F483E790E028D880914E0152
:10081000843009F017C185E061E0FED78091440182
:10082000882311F453DE07C051DE24E630E0A9012D
:10083000481B590BCA016CE571E04AE050E08DD8C5
:100840000DD844DE0A9728F480914401882309F4E6
:10085000F5C03CDEE8C080914B01823009F068C0F1
:1008600080914801882309F063C080914901882361
:1008700009F05EC080915401883009F059C0809120
:100880005901882341F561E0C7D781E490E0F1D7B1
:100890001DDE6CE571E04AE050E05FD8DFD716DE80
:1008A0000A9718F483E790E0D9D710DE84369105D3
:1008B00018F483E790E0D2D784E061E0ADD783E419
:1008C00090E0D7D78091430190E06CE571E04AE079
:1008D00050E043D8C3D7FADD2091430130E0281718
:1008E000390768F080915A01882349F481E08093A8
:1008F0005A0185E790E0FCDB8BB7806412C0E6DD2F
:100900002091430130E02817390768F480915A019B
:10091000813049F410925A0184E890E0E9DB8BB70A
:100920008F7B8BBF8FC080915A0180935A018AC000
:1009300080914B01843009F085C080914801882363
:1009400009F080C080914901882309F07BC0809123
:100950005401883009F076C085E060E05DD7B6DDEF
:100960006CE571E04AE050E0F8D778D783E390E097
:1009700080D7ACDD0A9718F483E790E06FD7A6DD47
:100980008436910518F483E790E068D780E061E051
:1009900043D787E490E06DD780914501882319F013
:1009A0008FE390E066D78091450190E06CE571E0BF
:1009B0004AE050E0D2D752D7809145018A3018F4EE
:1009C00084E990E04BD784E061E026D78DE390E0A6
:1009D00050D780914401882329F48091450190E00B
:1009E0008BDD0AC08091450190E086DD24E630E091
:1009F000A901481B590BCA016CE571E04AE050E0BF
:100A0000ACD72CD783E390E034D78091450190E0B8
:100A100073DD0A9720F480914401882379F0809156
:100A2000450190E069DD24E630E0281B390B2A30CF
:100A3000310538F480914401813019F483E790E066
:100A40000DD7C3DD80915401883031F410925601E6
:100A5000109255011092540183B7856083BFFF91B6
:100A6000EF91BF91AF919F918F917F916F915F9126
:100A70004F913F912F911F910F910F900FBE0F90AB
:100A80001F9018951F920F920FB60F9211242F935B
:100A90003F934F935F936F937F938F939F93AF9306
:100AA000BF93EF93FF9387E990E022DB109252010E
:100AB00010925101109250011092530180914801FF
:100AC0008823C1F5809149018823A1F581E08093B5
:100AD0004701AC9A80914B01833079F484E060E067
:100AE0009BD68091420190E06CE571E04AE050E0D5
:100AF00034D7B4D686E060E019C080E061E08CD6DF
:100B00008091FC009091FD00B4D680E390E0B1D6D6
:100B100084E061E081D68091420190E06CE571E073
:100B20004AE050E01AD79AD686E061E075D688E3AD
:100B300090E09FD64EDC81E080935901FF91EF91C8
:100B4000BF91AF919F918F917F916F915F914F91E5
:100B50003F912F910F900FBE0F901F90189566D662
:100B6000E0914E01F0E0EE0FFF1FEC5FFE4F808141
:100B700091817FD68DE290E07CD680914E018230CB
:100B800089F1833030F4882369F0813009F088C01E
:100B900011C0843009F44AC0843080F1853009F0F6
:100BA0007FC05FC081E081DD80914001E6DA9091F5
:100BB000400107C081E079DD80914101DEDA90914A
:100BC000410184E6989FC00111246FEF70E0B2D616
:100BD000CB016CE571E04AE050E0BFD63FD685E33B
:100BE00090E03DC08091420190E06CE571E04AE008
:100BF00050E0B3D633D68AE390E031C084E055DDCF
:100C000080E061E009D681E490E033D684E061E0E1
:100C100003D683E490E02DD68091430190E06CE50B
:100C200071E04AE050E099D619D6089584E03DDDA0
:100C300087E060E0F1D58091440190E06CE571E0DF
:100C40004AE050E08AD60AD680E061E0E5D581E44A
:100C500090E00FD684E061E0DFD585E490E009D62E
:100C6000089584E022DD80E061E0D6D58091F70030
:100C70006AE040D690E06CE571E04AE050E06DD665
:100C8000EDD58EE990E0EAD58091F7006AE032D6A2
:100C9000892F90E06CE571E04AE050E05ED6DED549
:100CA000089580914E01823009F459C0833030F4A8
:100CB000882371F0813009F0C5C02DC0843009F45B
:100CC0008EC0843008F464C0853009F0BBC0A2C077
:100CD000849B0BC0809146018D3221F080914601AA
:100CE0008F5F0CC0109246010BC080914601882393
:100CF00011F48DE203C0809146018150809346013A
:100D0000E0914601F0E0EE5EFE4F8081809340016D
:100D10008091400122C0849B0BC0809146018D329E
:100D200021F0809146018F5F0CC0109246010BC0EC
:100D300080914601882311F48DE203C08091460121
:100D4000815080934601E0914601F0E0EE5EFE4F57
:100D5000808180934101809141010FDA73C0849BAF
:100D60000BC0809142018C3321F0809142018F5F52
:100D700008C01092420166C080914201882321F48C
:100D80008CE3809342015EC0809142018150F9CF93
:100D9000849B11C080914301843651F0209143011E
:100DA000822F90E0880F991F809343012F5F14C01A
:100DB0001092430147C080914301882321F484E6C7
:100DC000809343013FC020914301822F90E0880F20
:100DD000991F8093430121502093430133C0849B8A
:100DE0000DC080914401813031F0809144018093A5
:100DF00044018F5F0CC01092440124C080914401D3
:100E0000882311F481E003C08091440181508093D4
:100E1000440118C0849B0BC08091F700843121F0FD
:100E20008091F7008F5F0CC01092F7000BC080918B
:100E3000F700882311F484E103C08091F70081500A
:100E40008093F7008CDE0895F1D4E0914E01F0E03C
:100E5000EE0FFF1FEC5FFE4F808191810AD587E086
:100E600060E0DAD488E290E004D580914E018630CB
:100E700029F4809104019091050109C0E0914E018F
:100E8000F0E0EE0FFF1FEA5FFE4F80819181F1D409
:100E90000895849B0BC080914E01863021F0809193
:100EA0004E018F5F0CC010924E010BC080914E011D
:100EB000882311F486E003C080914E018150809315
:100EC0004E01C2DF0895B2D48CE690E0D2D480EA1D
:100ED00090E0C4D48FE690E0CCD480914D0188237B
:100EE00019F487E060E002C087E061E095D486E213
:100EF00090E0BFD40895849B0BC080914D01813058
:100F000021F080914D018F5F0CC010924D010BC0FC
:100F100080914D01882311F481E003C080914D013F
:100F2000815080934D01CFDF089580D4E0914C0132
:100F3000F0E0EE0FFF1FE850FF4F8081918199D4C0
:100F400087E060E069D488E290E093D480914C011E
:100F5000853029F48091F8009091F90009C0E09162
:100F60004C01F0E0EE0FFF1FE650FF4F80819181B2
:100F700080D40895849B0BC080914C01853021F072
:100F800080914C018F5F0CC010924C010BC080917E
:100F90004C01882311F485E003C080914C018150FD
:100FA00080934C01C2DF089580914B01823051F152
:100FB000833028F4882341F08130D1F509C0833093
:100FC00039F18430A9F52BC031D48FE690E025C0EB
:100FD0002DD48CE690E04DD480E390E04AD483B5E4
:100FE00094E6899FC00111246FEF70E0A3D4CB0178
:100FF0006CE571E04AE050E0B0D430D482EA90E091
:101000002DD4089513D48091FA009091FB0005C06F
:101010000DD48091FC009091FD002BD4089506D44E
:101020008091FE009091FF0024D480E390E021D4D1
:1010300008951F920F920FB60F9211242F933F9392
:101040004F935F936F937F938F939F93AF93BF93D0
:10105000EF93FF93809150019091510101969093ED
:10106000510180935001809150019091510184363B
:10107000910569F4809153018F5F80935301109221
:1010800051011092500181B390E2892781BB809178
:1010900053018A3009F076C0809152018F5F8093AE
:1010A00052011092530180914701813039F48091AF
:1010B0005201843019F410924701AC9880914B0191
:1010C000823029F080914B01833009F05BC0809120
:1010D0005901813009F056C080914801882309F0F8
:1010E00045C080914901882309F040C05DDF8091AF
:1010F0004B01823059F480E061E08ED38091FC0096
:101100009091FD00B6D380E390E0B3D380914B0182
:10111000833071F4809142012091520190E0821B52
:1011200091090A9714F485E001C084E060E00DC0E5
:10113000809142012091520190E0821B91090A970F
:1011400014F485E001C084E061E066D3809142013F
:101150002091520190E0821B91096CE571E04AE018
:1011600050E0FBD37BD388E390E083D3909152018E
:1011700080914201981731F4109252011092590156
:1011800013DF63D9FF91EF91BF91AF919F918F9141
:101190007F916F915F914F913F912F910F900FBE73
:1011A0000F901F9018951F920F920FB60F92112457
:1011B0002F933F934F935F936F937F938F939F935F
:1011C000AF93BF93EF93FF9380914801813031F447
:1011D00080914901882311F4CDDEA4C0809148019B
:1011E000882309F04BC080914901882309F046C04B
:1011F00080914B01813009F041C010925201109250
:1012000051011092500180934701AC9A23B5E2E15D
:10121000F1E090E08081821728F49F5F31969F3241
:10122000C9F790E090934601849B0BC080914601E2
:101230008D3221F0809146018F5F0CC010924601E3
:101240000BC080914601882311F48DE203C0809188
:101250004601815080934601E0914601F0E0EE5E48
:10126000FE4F80818AD780914B0190E09DDE43B58F
:1012700050E060E070E088E190E035C08091480186
:10128000882399F580914901882379F580914B0154
:10129000843059F510925201109251011092500170
:1012A00081E080934701AC9A849B0BC080914501FB
:1012B000893121F0809145018F5F0CC0109245016A
:1012C0000BC080914501882311F489E103C080910E
:1012D00045018150809345014091450150E060E017
:1012E00070E083E290E058D71DC0809148018230C1
:1012F00031F480914901882311F4FDDD13C0809100
:101300004801833031F480914901813011F4C1DD0D
:1013100009C080914801833029F4809149018230CD
:1013200009F4BFDCFF91EF91BF91AF919F918F9135
:101330007F916F915F914F913F912F910F900FBED1
:101340000F901F90189584EA90E0D2D689EA90E039
:10135000CFD680EB90E0CCD683EB90E0C9D686EC7C
:1013600090E0C6D680EB90E0C3D680EB90E0C0D68C
:101370005DD28DED90E072D286EE90E06FD288E87B
:1013800093E128EC30E0F9013197F1F70197D9F7B3
:101390004DD28AEE90E062D282EF90E05FD288E890
:1013A00093E128EC30E0F9013197F1F70197D9F793
:1013B0000895CF92DF92EF92FF920F931F93CF93F6
:1013C000DF93F9D667D78D9A95988E9A96988F9ACB
:1013D0009798A49AAC9A899A919A88988B98939A9C
:1013E0008C98949ABE98C69A8A98BB9A10BC83E34C
:1013F00089B9539A86E880BD8CE048D288D694D6C5
:1014000088B7816088BF89B7816089BF8FED82BF4F
:101410008BE08EBD8CE790E09BBD8ABD89B7806173
:1014200089BF91DFE199FECF89E190E09FBB8EBB40
:10143000E09A8DB380934B0180914B0136D9B4DD96
:1014400080ED97E028EC30E0F9013197F1F7019752
:10145000D9F7AC987894C8ECD0E0A4E0CA2E13E099
:1014600001E0F2E0DF2EE8E1EE2EF12C81B38058AE
:1014700081BB80914801882309F0F4C08091490123
:10148000882309F0EFC086D7982F813009F0EAC091
:1014900080914701882351F410925201109251011A
:1014A0001092500190934701AC9ADCC0AC9A909393
:1014B000480110924C0110924D01109247014EC00C
:1014C00069D7813009F0CEC090914801913021F563
:1014D00080914901882301F580914C01843030F4DA
:1014E000D092480110924D01EEDCBCC080914C01BD
:1014F000843039F41093480190934901CBD6A4DC91
:10150000B1C080914C01853009F0A8C0109248010B
:101510001092490149DDA0C020914801223009F014
:10152000A1C080914901882309F09CC090914D0190
:101530009130B1F480914C01843009F493C09093C0
:10154000480110924B0140914B0150E060E070E087
:1015500089E190E021D680914B01A7D8E6DC82C0DA
:1015600080914D01882309F079C080914C01882336
:10157000C1F400934B0140914B0150E060E070E0FA
:1015800089E190E009D61092480180914B018DD8F5
:101590000BDD80ED97E0FE013197F1F70197D9F768
:1015A0005BC080914C018130C1F420934B0140918C
:1015B0004B0150E060E070E089E190E0EDD51092E1
:1015C0004801F2DC80914B0170D880ED97E0FE017C
:1015D0003197F1F70197D9F73FC080914C018230E4
:1015E00001F510934B0140914B0150E060E070E039
:1015F00089E190E0D1D510924801D6DC80914B0171
:1016000054D880ED97E0FE013197F1F70197D9F7B3
:101610001092520110925101109250010093470113
:1016200021C080914C018330E9F4C0924B0140917C
:101630004B0150E060E070E089E190E0ADD51092A0
:101640004801B2DC80914B0130D880ED97E0FE017B
:101650003197F1F70197D9F7AC9804C08091480110
:101660008093480180914801882309F457C08091F4
:101670004901882309F424CF51C08CD6813009F068
:101680004DC020914801233009F044C09091490198
:10169000913009F03FC080914E01863041F4909323
:1016A00048011092490110924E013FDC37C08091F1
:1016B0004E01863099F120934801D09249018091E2
:1016C0004E01882369F420914001E2E1F1E090E0CD
:1016D00080818217B0F49F5F31969F32C9F710C0A6
:1016E00080914E01813081F420914101E2E1F1E0ED
:1016F00090E08081821728F49F5F31969F32C9F76E
:1017000090E09093460104C0809146018093460189
:1017100026DA04C0809149018093490180914801F3
:10172000882301F180914901813009F4A6CF1AC0C4
:1017300031D6813099F41093480180934901109279
:10174000460182DBEED5E199FECFFFBAEEBAE09A10
:101750008DB313D580914B01A8D704C08091490166
:101760008093490180914801882309F47FCE8091BC
:101770004901823009F07ACEDBCF282F662311F0A1
:10178000C09A01C0C098C19884B38F6084BB95B3E0
:10179000907F822F82958F70892B85BBC29A00C063
:1017A000C2982F70292B25BBC29A00C0C2989F6097
:1017B00095BB0895882311F0C09A01C0C098C19AC2
:1017C00084B3807F84BBC29A00C093B3C29800C028
:1017D000C29A00C083B38F709295907FC298892B74
:1017E000089580E0E7DF87FDFCCF84E090E001977B
:1017F000F1F780E0DFDF08951F93182FF2DF812FCC
:1018000060E0BBDF1F9108951F93182FEADF812F3F
:1018100061E0B3DF1F910895662311F4805801C081
:101820008054EADF0895DDDF90E0089581E0E4DF91
:10183000089582E0E1DF08951F93182FD2DF1A3058
:1018400041F4803410F080E001C080E48058D4DF9F
:1018500003C0812F61E091DF1F910895CF93DF9343
:10186000EC0101C0E9DF89918823E1F7DF91CF9195
:101870000895CF93DF93EC0101C0DEDFFE012196D6
:1018800084918823D1F7DF91CF9108951F93182F6A
:1018900084B38F6084BBB89AB99ABA9A80E09DE706
:1018A0000197F1F7A99AA89AC29A00C0C29880E05D
:1018B00097E20197F1F7C29A00C0C29880E890E0E1
:1018C000FC013197F1F7C29A00C0C298FC01319730
:1018D000F1F7A898C29A00C0C2980197F1F788E280
:1018E0008BDF88E089DFA2DF86E086DF812F84DF5F
:1018F0001F910895991B79E004C0991F961708F06D
:10190000961B881F7A95C9F780950895AA1BBB1B63
:1019100051E107C0AA1FBB1FA617B70710F0A61BEF
:10192000B70B881F991F5A95A9F780959095BC0110
:10193000CD01089597FB092E07260AD077FD04D024
:10194000E5DF06D000201AF4709561957F4F089569
:10195000F6F7909581959F4F0895FB019F01E894BC
:101960004230BCF04532ACF44A3029F497FB1EF407
:10197000909581959F4F642F7727C8DF805D8A33CC
:101980000CF0895D8193CB010097A9F716F45DE215
:1019900051931082C90100C0DC01FC01672F7191D5
:1019A0007723E1F7329704C07C916D937083629145
:0C19B000AE17BF07C8F30895F894FFCFEE
:1019BC002D2D2D20464952535420424F4F54202D4B
:1019CC002D2D002000504952204953523A204F4EA1
:1019DC00200A0D00504952204953523A204F464696
:1019EC00200A0D00202000504952200A0D002E0024
:1019FC000A0025001B5B324A001B5B303B30480061
:101A0C000A0D004C45442044696D6D6572205631B9
:101A1C002E30200A0D005061756C6975732042617F
:101A2C00757472656E61732032303134005061759B
:101A3C006C6975730A00426175004C6564446D7283
:101A4C000A0076312E30000A4900500058005C0024
:101A5C006000670073007A00810089008F00960097
:101A6C009E000001020305080B0F14191E242B31D4
:101A7C0038404850586169727B848D969EA7AFB7E9
:101A8C00BFC7CED4DBE1E6EBF0F4F7FAFCFDFEFFCA
:00000001FF
