:100000000C9446000C94D3040C9492030C9463005B
:100010000C9463000C9463000C940F050C94630023
:100020000C9463000C947C050C9463000C9498066B
:100030000C9463000C9463000C9463000C946300B4
:100040000C9463000C9463000C9463000C946300A4
:100050000C946300720075007400780077007B00D8
:100060007A007D0080007F00860082008500840089
:1000700089008C008B0092008E009100900094000B
:10008000970096009D0099009C009B0011241FBEC4
:10009000CFE5D4E0DEBFCDBF13E0A0E6B0E0E6E000
:1000A000F9E102C005900D92AE36B107D9F713E021
:1000B000AEE6B3E001C01D92A13AB107E1F70E949C
:1000C000FC090C94810C0C940000FC013197EC317C
:1000D000F105B0F5E65DFF4FEE0FFF1F0590F491BF
:1000E000E02D0994AA9A2CC0AA9AAB9A29C0AA9A80
:1000F000AC9A26C0AA9AAB9AFBCFAA9A08C0AA9A31
:10010000AB9A05C0AA9A02C0AA9AAB9AAC9AAD9AC9
:1001100017C0AA9A14C0AA9AAB9A11C0AA9A02C090
:10012000AA9AAB9AAC9A0BC0AA9A08C0AA9AAB9AA0
:1001300005C0AA9A02C0AA9AAB9AAC9AAD9A969AAE
:100140006830710509F441C069307105B8F4643054
:100150007105A1F16530710550F46230710551F1FE
:100160006330710550F561307105E9F521C06630E5
:10017000710539F16730710538F522C06C307105B1
:1001800059F16D30710538F46A30710511F16B3039
:10019000710500F51CC06E30710509F16E307105F6
:1001A000E0F06F307105E1F060317105E1F41AC0E3
:1001B000D99A01C0D89ADC9A16C0D89AD99A01C0A7
:1001C000D89ADA9ADB9A0FC0D89AD99AFBCFD89AE4
:1001D000F9CFD89AD99A01C0D89ADA9A04C0D89A95
:1001E000D99A01C0D89A4130510519F482B3DD9AE9
:1001F00004C0452B41F4959ADE9A949A80E49FE1DD
:100200000197F1F703C01BBA15BA12BA1BBA15BA97
:1002100012BA089585B785BF85B785BF8BB7806C47
:100220008BBF089585E083BF12BE08958BE08EBD1D
:100230008CE790E09BBD8ABD0895109274031092E4
:1002400073031092720310927503089589B7806149
:1002500089BF089589B78F7E89BF089590BD89B9F8
:10026000549A539A86E880BD579A08955D9BFECFB5
:100270008CB90895FC0104C05D9BFECF8CB931960A
:1002800080818823C9F708955F9BFECF8BB18CB125
:1002900008950F931F93CF93DF9300E010E00FC0FA
:1002A000C801BE0141E050E00E9465002196C131C5
:1002B000D105B1F70F5F1F4F0D31110519F0C0E0E7
:1002C000D0E0EECFDF91CF911F910F9108950F9362
:1002D0001F93CF93DF9300E010E00FC0C801BE0171
:1002E00040E050E00E9465002196C131D105B1F790
:1002F0000F5F1F4F0D31110519F0C0E0D0E0EECFB8
:10030000DF91CF911F910F910895FF920F931F934B
:10031000CF93DF93F62E142FE82FF0E0E45BFC4F31
:100320008081C82FD0E0AE0141705070862F90E0E0
:10033000612F70E00E946500012F0C5FD695C79574
:100340001F5FAE01417050708F2D90E0612F70E003
:100350000E946500101791F7DF91CF911F910F91C7
:10036000FF900895FF920F931F93F42E853009F4A8
:1003700095C0863090F4823009F44EC0833030F45A
:100380008823F1F0813009F011C130C0833009F4C5
:1003900059C0843009F00AC16BC0883009F4C0C06C
:1003A000893038F4863009F48FC0873009F0FEC0F8
:1003B000A1C0893009F4CAC08A3009F0F7C0DCC096
:1003C000062F10E080E090E0B80150E00E94850127
:1003D0000F5F1F4F81E090E0B8014F2D50E00E9469
:1003E00085010F5F1F4F82E090E0DBC0062F10E019
:1003F00083E090E0B80150E00E9485010F5F1F4F3D
:1004000084E090E0B8014F2D50E00E9485010F5F1D
:100410001F4F85E090E0C5C0062F10E086E090E019
:10042000B80150E00E9485010F5F1F4F87E090E008
:10043000B8014F2D50E00E9485010F5F1F4F88E0EB
:1004400090E0AFC0062F10E089E090E0B80150E0E6
:100450000E9485010F5F1F4F8AE090E0B8014F2D89
:1004600050E00E9485010F5F1F4F8BE090E099C024
:10047000062F10E08CE090E0B80150E00E9485016A
:100480000F5F1F4F8DE090E0B8014F2D50E00E94AC
:1004900085010F5F1F4F8EE090E083C0062F10E0B4
:1004A0008FE090E0B80150E00E9485010F5F1F4F80
:1004B00080E190E0B8014F2D50E00E9485010F5F70
:1004C0001F4F81E190E06DC0062F10E082E190E0C7
:1004D000B80150E00E9485010F5F1F4F83E190E05B
:1004E000B8014F2D50E00E9485010F5F1F4F84E13E
:1004F00090E057C0062F10E085E190E0B80150E091
:100500000E9485010F5F1F4F86E190E0B8014F2DDB
:1005100050E00E9485010F5F1F4F87E190E041C0CE
:10052000062F10E088E190E0B80150E00E948501BC
:100530000F5F1F4F89E190E0B8014F2D50E00E94FE
:1005400085010F5F1F4F8AE190E02BC0062F10E05E
:100550008BE190E0B80150E00E9485010F5F1F4FD2
:100560008CE190E0B8014F2D50E00E9485010F5FB3
:100570001F4F8DE190E015C0062F10E08EE190E056
:10058000B80150E00E9485010F5F1F4F8FE190E09E
:10059000B8014F2D50E00E9485010F5F1F4F80E290
:1005A00090E0B8014F2D50E00E9485011F910F91FE
:1005B000FF900895FF920F931F93F62E082F10E0DF
:1005C0008091940390E0C097B8014F2D50E00E94B5
:1005D000B2018091950390E00C5F1F4FC097B80166
:1005E0004F2D50E00E94B2018091960390E00D5F84
:1005F0001F4FC097B8014F2D50E00E94B20180916B
:10060000970390E00D5F1F4FC097B8014F2D50E04A
:100610000E94B2018091980390E00C5F1F4FC09739
:10062000B8014F2D50E00E94B2011F910F91FF9031
:100630000895EF92FF920F931F93CF93DF93E62ECF
:10064000F42E022FC82FD0E010E009C0CE016E2D8D
:1006500070E0402F50E00E9465001F5F21961F153B
:10066000A8F3DF91CF911F910F91FF90EF90089524
:1006700080917A03813041F0813018F0823069F442
:1006800008C080E690E002C08DE790E00E943A0149
:10069000089588E990E00E943A0108950F931F930E
:1006A00084EB90E00E943A018DEB90E00E943A01C9
:1006B00089EC90E00E943A0188ED90E00E943A01B6
:1006C00087EE90E00E943A0188EF90E00E943A01A4
:1006D0008BE091E00E943A018CE191E00E943A01A6
:1006E00007E211E0C8010E943A01C8010E943A01E4
:1006F0001F910F91089590917603829904C09923D8
:1007000061F482E005C0839905C0992331F483E048
:1007100091E005C0109276030895913071F790939F
:10072000760308951F920F920FB60F9211248F93A4
:1007300081E08093790310927B03C49A8BB78F7703
:100740008BBF8BB78F7B8BBF8F910F900FBE0F909E
:100750001F9018954091A003842F6AE00E94300CEE
:10076000282F30E074E0220F331F7A95E1F7842FB1
:100770000E94300C922B9093820384E0692F0E9498
:10078000A00B40918103842F6AE00E94300C282F37
:1007900030E054E0220F331F5A95E1F7842F0E9476
:1007A000300C922B9093820385E0692F0E94A00B5E
:1007B00040919103842F6AE00E94300C282F30E092
:1007C00094E0220F331F9A95E1F7842F0E94300C9A
:1007D000922B9093820386E0692F0E94A00B0895CC
:1007E00040919203842F6AE00E94300C282F30E061
:1007F000A4E0220F331FAA95E1F7842F0E94300C4A
:10080000922B9093820380E0692F0E94A00B40916D
:100810009003842F6AE00E94300C282F30E0F4E02F
:10082000220F331FFA95E1F7842F0E94300C922B90
:100830009093820381E0692F0E94A00B4091930363
:10084000842F6AE00E94300C282F30E0E4E0220F71
:10085000331FEA95E1F7842F0E94300C922B90937E
:10086000820382E0692F0E94A00B0895FF920F93EC
:100870001F930FE813E080E0B8010E94BD0B1092B7
:100880009C0380918F03282F2F70205D20939B0362
:1008900090E08077907064E0959587956A95E1F790
:1008A000805D80939A035AE3F52EF092990381E0DC
:1008B000B8010E94BD0B80918F03282F2F70205DFF
:1008C0002093980390E08077907044E09595879509
:1008D0004A95E1F7805D80939703F092960382E05A
:1008E000B8010E94BD0B80918F03282F2F70205DCF
:1008F0002093950390E08073907034E095958795F0
:100900003A95E1F7805D8093940384E0B8010E94FA
:10091000BD0B10928D0380918F03282F2F70205DC7
:1009200020938C0390E08073907024E095958795D8
:100930002A95E1F7805D80938B038DE2F82EF0928B
:100940008A0385E0B8010E94BD0B80918F03282F98
:100950002F70205D2093890390E080719070B4E047
:1009600095958795BA95E1F7805D80938803F0921D
:10097000870386E0B8010E94BD0B90918F03892FF9
:100980008F70805D8093860392959F70905D9093A9
:10099000850380E38093840382E3809383031F9124
:1009A0000F91FF9008951F920F920FB60F9211248E
:1009B0002F933F934F935F936F937F938F939F9367
:1009C000AF93BF93EF93FF9389B78E7F89BF81E089
:1009D00080937803C39A1092740310927303109259
:1009E00072031092750389B7806189BF8BB78F77C7
:1009F0008BBF8BB78F7B8BBF0E943604FF91EF912B
:100A0000BF91AF919F918F917F916F915F914F9126
:100A10003F912F910F900FBE0F901F9018951F922E
:100A20000F920FB60F9211242F933F934F935F9322
:100A30006F937F938F939F93AF93BF93EF93FF93A6
:100A40008091720390917303019690937303809346
:100A5000720380917203909173038436910549F477
:100A6000809175038F5F80937503109273031092CA
:100A70007203809175038A3071F5809174038F5FE2
:100A80008093740310927503809174038E31F9F48E
:100A9000C39889B78F7E89BF109274031092730335
:100AA00010927203109275030E9467010E9436042F
:100AB00086E068E00E94DA028BB7806C8BBF81E031
:100AC00089BF1092780310927703789404C08091C4
:100AD000740380937403FF91EF91BF91AF919F9145
:100AE0008F917F916F915F914F913F912F910F90D7
:100AF0000FBE0F901F9018951F920F920FB60F9276
:100B000011242F933F934F935F936F937F938F9312
:100B10009F93AF93BF93EF93FF93809171038F5F88
:100B20008093710380917103843609F09FC0109205
:100B300071030E943604A0919703EA2FF0E06091C0
:100B400090038091980390E0805192409F01220F82
:100B5000331FAF0173E0440F551F7A95E1F7240F5F
:100B6000351F820F931F262F30E08217930789F1DC
:100B7000F097862F6AE00E94300C90E0E817F907A2
:100B800031F08A2F805360E148E00E94B201409129
:100B90009803242F30E020533040809190036AE086
:100BA0000E94300C892F90E02817390731F0842FEC
:100BB000805364E148E00E94B20180919803805123
:100BC000209197039AE0299F90011124820F80932E
:100BD0009003A0919403EA2FF0E060919303809139
:100BE000950390E0805192409F01220F331FAF0187
:100BF00073E0440F551F7A95E1F7240F351F820FDC
:100C0000931F262F30E08217930781F1F097862FEC
:100C10006AE00E94300C90E0E817F90731F08A2F63
:100C2000805366E048E00E94B20140919503242F72
:100C300030E020533040809193036AE00E94300CF2
:100C4000892F90E02817390729F0842F805348E036
:100C50000E94B201809195038051209194039AE003
:100C6000299F90011124820F80939303809179032F
:100C7000813089F480917B038F5F80937B03809127
:100C80007B03843641F410927B0310927903C4985D
:100C90008BB7806C8BBFFF91EF91BF91AF919F910C
:100CA0008F917F916F915F914F913F912F910F9015
:100CB0000FBE0F901F901895EF92FF920F931F9306
:100CC0001AE2E12E11E0F12EC7010E943A0107E27B
:100CD00011E0C8010E943A0184E491E00E943A01C7
:100CE0008AE591E00E943A01C8010E943A01C801D8
:100CF0000E943A010E94360483E893E00E943A0180
:100D000081E791E00E943A0184E993E00E943A0170
:100D1000C8010E943A010E943803C7010E943A01AB
:100D2000C8010E943A011F910F91FF90EF90089522
:100D30001F920F920FB60F9211241F932F933F9380
:100D40004F935F936F937F938F939F93AF93BF93D3
:100D5000EF93FF935F9BFECF8BB11CB1133649F429
:100D600084E791E00E943A0189E791E00E943A010C
:100D700047C0113619F40E945C0642C01D3619F4B2
:100D80000E944E033DC0183799F484E791E00E9419
:100D90003A0189E791E00E943A0110926E031092A5
:100DA0006F030E945C060E944E0381E089BF28C049
:100DB000143731F580916E03882311F580E891E0B6
:100DC0000E943A018AEA91E00E943A0189B78E7F37
:100DD00089BF0E94360486ED91E00E943A0184E9C1
:100DE00093E00E943A0187E291E00E943A0185EE89
:100DF00091E00E943A0181E080936E0310926F03AC
:100E000090916E03913009F043C080916F03882365
:100E100039F4812F8053833070F490936F030BC0AB
:100E200080916F03813039F4812F80538A3018F418
:100E300082E080936F0380916F03813089F4812F6A
:100E400090E09C01220F331FAC01A3E0440F551F1B
:100E5000AA95E1F7240F351F205E2093930347C026
:100E600080916F03823039F480919303810F805316
:100E70008093930396C080916F03833009F01EC165
:100E800082E080936E0310926F0388EF91E036C08A
:100E900090916E03923009F04BC080916F038823CC
:100EA00041F4812F8053863070F481E080936F038A
:100EB0000AC080916F03813031F4812F80538A30D2
:100EC00010F490936F0380916F038130D1F4812FE0
:100ED00090E09C01220F331FAC01E3E0440F551F4B
:100EE000EA95E1F7240F351F205E20939003C09709
:100EF0006CE773E04AE050E00E943C0C0E943A012B
:100F0000DDC080916F03823039F480919003810FAE
:100F100080538093900345C080916F03833009F024
:100F2000CDC080936E0310926F038FE092E0E6CF06
:100F300080916E03833009F047C080916F0388234E
:100F400031F4812F8053863068F481E009C08091AC
:100F50006F03813039F4812F80538A3018F482E096
:100F600080936F0380916F03813089F4812F90E02B
:100F70009C01220F331FAC0163E0440F551F6A959B
:100F8000E1F7240F351F205E20939203B0CF8091AC
:100F90006F03823061F480919203810F80538093BC
:100FA000920383E080936F03812F90E0A0CF809124
:100FB0006F03833009F082C084E080936E03109247
:100FC0006F0386E292E09ACF80916E03843009F03D
:100FD0004DC0193711F0193581F58091930389318E
:100FE000E8F4809190038C33C8F4809192038C33A1
:100FF000A8F40E94F00384E392E00E943A01109268
:101000006E0310926F03109293031092900310924C
:10101000920386E068E00E94DA0221C083E492E055
:101020000E943A0110926E0310926F031092930384
:10103000109290031092920314C01E3611F01E34C9
:10104000E9F580E592E00E943A0110926E03109259
:101050006F031092930310929003109292030E94D8
:101060005C060E944E0381E089BF28C0143631F52A
:1010700080916E03882311F58DE592E00E943A017C
:101080008AEA91E00E943A0189B78E7F89BF0E9467
:10109000360486E892E00E943A0183E893E00E94D9
:1010A0003A0187E291E00E943A0184E992E00E94CD
:1010B0003A0185E080936E0310926F0380916E0376
:1010C000853009F042C080916F03882331F4812F6D
:1010D00080538A3068F481E009C080916F038130C9
:1010E00039F4812F80538A3018F482E080936F03A3
:1010F00080916F03813089F4812F90E09C01220F51
:10110000331FAC01A3E0440F551FAA95E1F7240F4C
:10111000351F205E2093910346C080916F0382307B
:1011200039F480919103810F80538093910396C08D
:1011300080916F03833009F0FEC086E080936E03D8
:1011400010926F0386EA92E035C080916E0386307C
:1011500009F04BC080916F03882331F4812F8053B5
:10116000823068F481E009C080916F03813039F4E6
:10117000812F80538A3018F482E080936F0380912E
:101180006F038130D1F4812F90E09C01220F331F37
:10119000AC01E3E0440F551FEA95E1F7240F351F3A
:1011A000205E20938103C0976CE773E04AE050E033
:1011B0000E943C0C0E943A01BEC080916F038230B5
:1011C00039F480918103810F80538093810346C05D
:1011D00080916F03833009F0AEC087E080936E0387
:1011E00010926F038BEB92E0E5CF80916E03873016
:1011F00009F047C080916F03882331F4812F805319
:10120000843068F481E009C080916F03813039F443
:10121000812F80538A3018F482E080936F0380918D
:101220006F03813089F4812F90E09C01220F331FDE
:10123000AC0163E0440F551F6A95E1F7240F351F99
:10124000205E2093A003AFCF80916F03823061F4C2
:101250008091A003810F80538093A00383E080934B
:101260006F03812F90E09FCF80916F03833009F04F
:1012700062C088E080936E0310926F038EEC92E060
:1012800099CF80916E038830E9F5193711F019353F
:1012900001F580919103843668F4809181038D304B
:1012A00048F48091A003803228F40E94AA0384E3CA
:1012B00092E015C083E492E00E943A0110926E031E
:1012C00010926F0310929103109281031092A00369
:1012D00014C01E3611F01E3471F580E592E00E94B4
:1012E0003A0110926E0310926F03109291031092C4
:1012F00081031092A0030E945C060E944E0381E0CD
:1013000089BF19C01636B9F480916E03882399F409
:101310008CED92E00E943A018AEE92E00E943A013E
:101320008BE093E00E943A018AE293E00E943A0146
:1013300089E080936E0380916E038930F9F4812FE8
:1013400090E0C0978130910551F08230910559F0BD
:10135000892BA1F4C198C29810927A0309C0C19A4E
:10136000C29881E003C0C198C29A82E080937A0358
:1013700010926E030E945C060E944E03FF91EF9153
:10138000BF91AF919F918F917F916F915F914F919D
:101390003F912F911F910F900FBE0F901F901895A6
:1013A0000F931F9302E813E080E0B8010E94BD0B89
:1013B000609182036F776093820380E00E94A00BAC
:1013C00082E0B8010E94BD0B609182036F7B609345
:1013D000820382E00E94A00B87E0B8010E94BD0B4F
:1013E0006091820360696C7F6093820387E00E9452
:1013F000A00B1F910F910895AF92BF92CF92DF92F1
:10140000EF92FF920F931F93CF93DF93F8948FEF98
:1014100087BB18BA8ABB1BBA84BB15BA81BB12BA88
:101420008A988B98929A939A83E390E00E942E0177
:101430000E94E40B0E94D00985E083BF12BE8BE0BE
:101440008EBD8CE790E09BBD8ABD78940E945C06BF
:101450000E944E030E9449010E94670180ED97E0BF
:1014600028EC30E0F9013197F1F70197D9F786E0E0
:1014700068E00E94DA0285B785BF85B785BF8BB764
:10148000806C8BBF81E089BF01E0C8ECD0E090E4C4
:10149000E92E9CE9F92EBB24B39482E0A82E10E635
:1014A000C12E1AEED12E10E388B3802788BB88EEB8
:1014B00093E0FE013197F1F70197D9F72DC088B37A
:1014C000802788BBC7010197F1F70E947B03833017
:1014D00019F580917A03882331F4C19A10927B0325
:1014E000B0927A0319C080917A03813039F4C1989F
:1014F000C29A10927B03A0927A030EC080917A0365
:10150000823031F4C29810927B0310927A0304C0A7
:1015100080917A0380937A0380917903882379F606
:1015200009C188B3802788BBC6010197F1F70E94E3
:101530007B03823009F094C01092740310927303FD
:101540001092720310927503809177038F5F8093DE
:1015500077038330C1F0843030F4813051F0823031
:1015600009F07EC008C08430B1F0853009F078C041
:101570001FC086E017C086E066E043E020E00E94DE
:1015800019038AE00FC08AE066E043E020E00E9491
:10159000190380E107C080E166E043E020E00E949B
:1015A000190384E166E043E021E00E94190358C07A
:1015B00084E166E043E020E00E9419031092920368
:1015C000409198034051809197033AE0839FC00176
:1015D0001124480F4093900320919503205180914E
:1015E0009403839FC0011124280F20939303283173
:1015F00038F54C3328F5C39889B78F7E89BF109290
:1016000074031092730310927203109275030E9478
:10161000F0030E94670184EF91E0FE013197F1F73A
:101620000197D9F786E068E00E94DA028BB7806CF8
:101630008BBF09BF1092780310927703789410C083
:101640001092740310927303109272031092750338
:1016500086E066E043E021E00E941903B092770340
:101660000E947B03833009F065C0109274031092CE
:101670007303109272031092750380917703813087
:1016800079F480919403823321F08F5F80939403E7
:1016900002C01093940380919403805366E047C086
:1016A000823021F520919403822F90E0C29744F478
:1016B00080919503893361F08F5F8093950311C00A
:1016C000223369F420919503822F90E0C3971CF098
:1016D0001093950306C02F5F2093950302C02093BB
:1016E00094038091950380536AE021C0833079F49C
:1016F00080919703853321F08F5F8093970302C019
:101700001093970380919703805360E110C0843059
:1017100089F480919803893321F08F5F8093980337
:1017200002C01093980380919803805364E148E0CD
:101730000E94B20180917803882309F4B5CEF1CEDE
:101740000F931F93182F062F0E94F10B80ED0E941C
:10175000FD0B882371F0812F0E94FD0B882349F037
:10176000802F0E94FD0B882321F00E94F70B81E05F
:1017700001C080E01F910F9108951F93CF93DF93D5
:10178000182FEB010E94F10B80ED0E94FD0B8823C6
:10179000B1F0812F0E94FD0B882389F00E94F10B8C
:1017A00081ED0E94FD0B882351F0CE0160E00E9484
:1017B000130C882321F00E94F70B81E001C080E028
:1017C000DF91CF911F91089582E080B981B183604C
:1017D00081B986B7846086BF089586B78B7F86BF40
:1017E000089584EA86BF06B607FEFDCF089584E912
:1017F00086BF06B604FCFDCF089583B984E886BF92
:1018000006B607FEFDCF81B1887F883149F081B1EE
:10181000887F883229F081B190E0887F803409F494
:1018200091E0892F0895FC01662319F086B7806442
:1018300002C086B78F7B86BF86B7806886BF06B634
:1018400007FEFDCF81B1887F883531F081B1887F77
:10185000803511F080E0089583B1808381E00895A0
:10186000991B79E004C0991F961708F0961B881FF2
:101870007A95C9F780950895FB019F01E89442305D
:10188000C4F04532B4F44A3029F497FB1EF4909525
:1018900081959F4F642F77270E946D0C805D8A335E
:1018A0000CF0895D8193CB010097A1F716F45DE2FE
:1018B00051931082C9010C945D0CDC01FC01672F6F
:1018C00071917723E1F7329704C07C916D93708317
:1018D0006291AE17BF07C8F30895AA1BBB1B51E165
:1018E00007C0AA1FBB1FA617B70710F0A61BB70B90
:1018F000881F991F5A95A9F780959095BC01CD0135
:061900000895F894FFCFEA
:101906004645542031205B4F46465D2026204645FD
:10191600542032205B4F46465D200A0D0046455452
:101926002031205B4F4E5D20262046455420322034
:101936005B4F465D200A0D004645542031205B4F23
:1019460046465D2026204645542032205B4F4E5D9C
:10195600200A0D004D656E69753A0A0D0061202D4D
:101966002061626F75740A0D0074202D20736574F2
:101976002074696D650A0D0064202D20736574203E
:10198600646174650A0D0066202D2073656C6563BD
:1019960074204645540A0D0063202D20636C656152
:1019A600722073637265656E0A0D006D202D206DC1
:1019B60061696E206D656E69750A0D0078202D20AF
:1019C600657869740A0D000A0D002D2D2D2D2D2D1B
:1019D6002D2D2D2D2D2D2D2D2D2D2D2D2D2D2D2D31
:1019E6002D2D2D00666C69702D646F7420636C6FED
:1019F600636B2076312E340A0D005061756C697563
:101A060073204261757472656E61732032303134B1
:101A1600002020001B5B324A001B5B303B30480035
:101A26002D2D2D2D2D2D2D2D2D2D2D2D2D2054698A
:101A36006D6520207365747570202D2D2D2D2D2D2F
:101A46002D2D2D2D2D2D2D0A0D0020202020202876
:101A56007072657373205820746F206578697420DE
:101A6600617420656E792074696D652920202020B7
:101A7600200A0D0A0D0053797374656D20636C6F2F
:101A8600636B3A200053657420686F757273202863
:101A9600302D3234293A20000A0D536574206D69C1
:101AA6006E757465732028302D3539293A20000A61
:101AB6000D536574207365636F6E64732028302D33
:101AC6003539293A20000A0D536176653F20285999
:101AD6002F4E29000A0D53756363657373210A0D32
:101AE6000A0A000A0D4572726F72210A0D0A0A006F
:101AF6000A0D41626F7274210A0D0A0A002D2D2DFE
:101B06002D2D2D2D2D2D2D2D2D2D2044617465204F
:101B16007365747570202D2D2D2D2D2D2D2D2D2DAC
:101B26002D2D2D0A0D0053797374656D2064617433
:101B3600653A200053657420796561722028323039
:101B46007878293A20000A0D536574206D6F6E74FB
:101B5600682028302D3132293A20000A0D53657449
:101B6600206461792028302D3331293A20000A0D6E
:101B7600536176653F2028792F4E290053656C65A1
:101B86006374204645543A0A0D0030202D20464500
:101B9600542031205B4F46465D2026204645542082
:101BA60032205B4F46465D200A0D0031202D20462F
:101BB60045542031205B4F4E5D202620464554205B
:101BC60032205B4F465D200A0D0032202D2046450F
:101BD600542031205B4F46465D2026204645542042
:101BE60032205B4F4E5D200A0D0A0D001F111F09A2
:101BF6001F0117151D15151F1C041F1D15171F1571
:0E1C0600171017181F151F1D151F000A0000CC
:00000001FF
