:100000000EC090C027C026C025C024C023C022C077
:1000100021C020C01FC01EC01DC01CC01BC0112499
:100020001FBECFE5D2E0DEBFCDBF10E0A0E6B0E05E
:10003000ECEAF1E002C005900D92AC37B107D9F7B8
:1000400010E0ACE7B0E001C01D92AC37B107E1F7BA
:1000500098D0AAC0D5CFE0E6F0E08CE1AFE5BAEEEB
:100060001197F1F700C00000919198BD8150B1F750
:100070000895ECE7F0E08BE1929198BDAFE5BAEE20
:100080001197F1F700C000008150B1F70895E3DF48
:100090008FE79AE1A6E081509040A040E1F700C0D0
:1000A0000000E7DF8FE79AE1A6E081509040A04092
:1000B000E1F700C00000CFDF8FE79AE1A6E08150B2
:1000C0009040A040E1F700C00000D3DF8FE79AE145
:1000D000A6E081509040A040E1F700C00000BBDFE7
:1000E0008FE79AE1A6E081509040A040E1F700C080
:1000F0000000BFDF8FE79AE1A6E081509040A0406A
:10010000E1F700C000000895F89485B7877E80610C
:1001100085BF85B7806285BF7894889585B78F7DC8
:1001200085BF08951F920F920FB60F9211242F933F
:100130003F934F935F936F937F938F939F93AF936F
:10014000BF93EF93FF93F894A2DF78948FEF90E73B
:10015000A2E081509040A040E1F700C00000D4DF51
:10016000FF91EF91BF91AF919F918F917F916F918F
:100170005F914F913F912F910F900FBE0F901F9065
:100180001895BC9AC498B99A81E28ABD81E083BF70
:1001900085B785BF8BB780648BBFBA98C29A7894B5
:0C01A000379875DFB1DFFFCFF894FFCF78
:1001AC00000002050A1018212B3643505E6D7C8B23
:0C01BC009AA8B6C3D0DBE5EDF4FAFDFF15
:00000001FF
